{
  "contractName": "TodoContract",
  "abi": [
    {
      "anonymous": false,
      "inputs": [
        {
          "indexed": false,
          "internalType": "string",
          "name": "task",
          "type": "string"
        },
        {
          "indexed": true,
          "internalType": "uint256",
          "name": "taskId",
          "type": "uint256"
        }
      ],
      "name": "TaskCreadted",
      "type": "event"
    },
    {
      "anonymous": false,
      "inputs": [
        {
          "indexed": false,
          "internalType": "uint256",
          "name": "taskId",
          "type": "uint256"
        }
      ],
      "name": "TaskDeleted",
      "type": "event"
    },
    {
      "anonymous": false,
      "inputs": [
        {
          "indexed": false,
          "internalType": "string",
          "name": "task",
          "type": "string"
        },
        {
          "indexed": true,
          "internalType": "uint256",
          "name": "taskId",
          "type": "uint256"
        },
        {
          "indexed": false,
          "internalType": "bool",
          "name": "isComplete",
          "type": "bool"
        },
        {
          "indexed": true,
          "internalType": "string",
          "name": "createdAt",
          "type": "string"
        }
      ],
      "name": "TaskIsCompleteToggled",
      "type": "event"
    },
    {
      "anonymous": false,
      "inputs": [
        {
          "indexed": false,
          "internalType": "string",
          "name": "task",
          "type": "string"
        },
        {
          "indexed": false,
          "internalType": "uint256",
          "name": "taskId",
          "type": "uint256"
        }
      ],
      "name": "TaskUpdated",
      "type": "event"
    },
    {
      "inputs": [],
      "name": "taskCount",
      "outputs": [
        {
          "internalType": "uint256",
          "name": "",
          "type": "uint256"
        }
      ],
      "stateMutability": "view",
      "type": "function",
      "constant": true
    },
    {
      "inputs": [
        {
          "internalType": "uint256",
          "name": "",
          "type": "uint256"
        }
      ],
      "name": "todos",
      "outputs": [
        {
          "internalType": "uint256",
          "name": "index",
          "type": "uint256"
        },
        {
          "internalType": "string",
          "name": "taskName",
          "type": "string"
        },
        {
          "internalType": "bool",
          "name": "isComplete",
          "type": "bool"
        },
        {
          "internalType": "string",
          "name": "createdAt",
          "type": "string"
        }
      ],
      "stateMutability": "view",
      "type": "function",
      "constant": true
    },
    {
      "inputs": [],
      "name": "getTasks",
      "outputs": [
        {
          "components": [
            {
              "internalType": "uint256",
              "name": "index",
              "type": "uint256"
            },
            {
              "internalType": "string",
              "name": "taskName",
              "type": "string"
            },
            {
              "internalType": "bool",
              "name": "isComplete",
              "type": "bool"
            },
            {
              "internalType": "string",
              "name": "createdAt",
              "type": "string"
            }
          ],
          "internalType": "struct TodoContract.Task[]",
          "name": "values",
          "type": "tuple[]"
        }
      ],
      "stateMutability": "view",
      "type": "function",
      "constant": true
    },
    {
      "inputs": [
        {
          "internalType": "string",
          "name": "_taskName",
          "type": "string"
        },
        {
          "internalType": "string",
          "name": "_createdAt",
          "type": "string"
        }
      ],
      "name": "createTask",
      "outputs": [],
      "stateMutability": "nonpayable",
      "type": "function"
    },
    {
      "inputs": [
        {
          "internalType": "uint256",
          "name": "_taskId",
          "type": "uint256"
        },
        {
          "internalType": "string",
          "name": "_taskName",
          "type": "string"
        }
      ],
      "name": "updateTask",
      "outputs": [],
      "stateMutability": "nonpayable",
      "type": "function"
    },
    {
      "inputs": [
        {
          "internalType": "uint256",
          "name": "_taskId",
          "type": "uint256"
        }
      ],
      "name": "deleteTask",
      "outputs": [],
      "stateMutability": "nonpayable",
      "type": "function"
    },
    {
      "inputs": [
        {
          "internalType": "uint256",
          "name": "_taskId",
          "type": "uint256"
        }
      ],
      "name": "toggleComplete",
      "outputs": [],
      "stateMutability": "nonpayable",
      "type": "function"
    }
  ],
  "bytecode": "0x60806040526000805534801561001457600080fd5b5061158c806100246000396000f3fe608060405234801561001057600080fd5b506004361061007d5760003560e01c8063560f31921161005b578063560f3192146100d857806386533f6c146100f4578063b6cb58a514610110578063bc8bc2b41461012e5761007d565b806304a87e38146100825780630951e5bd146100a0578063292a4585146100bc575b600080fd5b61008a610161565b6040516100979190610d5b565b60405180910390f35b6100ba60048036038101906100b59190610dbd565b610369565b005b6100d660048036038101906100d19190610f1f565b6105d1565b005b6100f260048036038101906100ed9190610dbd565b6106c5565b005b61010e60048036038101906101099190610f97565b610751565b005b610118610991565b6040516101259190611002565b60405180910390f35b61014860048036038101906101439190610dbd565b610997565b6040516101589493929190611076565b60405180910390f35b60606000805467ffffffffffffffff8111156101805761017f610df4565b5b6040519080825280602002602001820160405280156101b957816020015b6101a6610ae4565b81526020019060019003908161019e5790505b50905060005b600054811015610361576001600082815260200190815260200160002060405180608001604052908160008201548152602001600182018054610201906110f8565b80601f016020809104026020016040519081016040528092919081815260200182805461022d906110f8565b801561027a5780601f1061024f5761010080835404028352916020019161027a565b820191906000526020600020905b81548152906001019060200180831161025d57829003601f168201915b505050505081526020016002820160009054906101000a900460ff161515151581526020016003820180546102ae906110f8565b80601f01602080910402602001604051908101604052809291908181526020018280546102da906110f8565b80156103275780601f106102fc57610100808354040283529160200191610327565b820191906000526020600020905b81548152906001019060200180831161030a57829003601f168201915b50505050508152505082828151811061034357610342611129565b5b6020026020010181905250808061035990611187565b9150506101bf565b508091505090565b600060016000838152602001908152602001600020604051806080016040529081600082015481526020016001820180546103a3906110f8565b80601f01602080910402602001604051908101604052809291908181526020018280546103cf906110f8565b801561041c5780601f106103f15761010080835404028352916020019161041c565b820191906000526020600020905b8154815290600101906020018083116103ff57829003601f168201915b505050505081526020016002820160009054906101000a900460ff16151515158152602001600382018054610450906110f8565b80601f016020809104026020016040519081016040528092919081815260200182805461047c906110f8565b80156104c95780601f1061049e576101008083540402835291602001916104c9565b820191906000526020600020905b8154815290600101906020018083116104ac57829003601f168201915b505050505081525050905060405180608001604052808381526020018260200151815260200182604001511515158152602001826060015181525060016000848152602001908152602001600020600082015181600001556020820151816001019081610536919061137b565b5060408201518160020160006101000a81548160ff021916908315150217905550606082015181600301908161056c919061137b565b5090505080606001516040516105829190611489565b6040518091039020827f6fa54a15f6791449f25611f89d562e158897bd720f134e04a2f3e978868ab42883602001518460400151156040516105c59291906114a0565b60405180910390a35050565b6040518060800160405280600054815260200183815260200160001515815260200182815250600160008054815260200190815260200160002060008201518160000155602082015181600101908161062a919061137b565b5060408201518160020160006101000a81548160ff0219169083151502179055506060820151816003019081610660919061137b565b5090505060008081548092919061067690611187565b9190505550600160005461068a91906114d0565b7fa78c45cd0401f3c84b7725cc5d493038b16433c6c78212fa5a5e3677e0e2f4ae836040516106b99190611504565b60405180910390a25050565b600160008281526020019081526020016000206000808201600090556001820160006106f19190610b0e565b6002820160006101000a81549060ff02191690556003820160006107159190610b0e565b50507fd078b251d950cc55c44340be1db732337ef4939a76e1367ee271ad2cb19c46af816040516107469190611002565b60405180910390a150565b6000600160008481526020019081526020016000206040518060800160405290816000820154815260200160018201805461078b906110f8565b80601f01602080910402602001604051908101604052809291908181526020018280546107b7906110f8565b80156108045780601f106107d957610100808354040283529160200191610804565b820191906000526020600020905b8154815290600101906020018083116107e757829003601f168201915b505050505081526020016002820160009054906101000a900460ff16151515158152602001600382018054610838906110f8565b80601f0160208091040260200160405190810160405280929190818152602001828054610864906110f8565b80156108b15780601f10610886576101008083540402835291602001916108b1565b820191906000526020600020905b81548152906001019060200180831161089457829003601f168201915b50505050508152505090506040518060800160405280848152602001838152602001826040015115158152602001826060015181525060016000858152602001908152602001600020600082015181600001556020820151816001019081610919919061137b565b5060408201518160020160006101000a81548160ff021916908315150217905550606082015181600301908161094f919061137b565b509050507fa19b2211615873e8fbe860460ba43e467bf8f2d28d98b023144fc0739af842cd8284604051610984929190611526565b60405180910390a1505050565b60005481565b60016020528060005260406000206000915090508060000154908060010180546109c0906110f8565b80601f01602080910402602001604051908101604052809291908181526020018280546109ec906110f8565b8015610a395780601f10610a0e57610100808354040283529160200191610a39565b820191906000526020600020905b815481529060010190602001808311610a1c57829003601f168201915b5050505050908060020160009054906101000a900460ff1690806003018054610a61906110f8565b80601f0160208091040260200160405190810160405280929190818152602001828054610a8d906110f8565b8015610ada5780601f10610aaf57610100808354040283529160200191610ada565b820191906000526020600020905b815481529060010190602001808311610abd57829003601f168201915b5050505050905084565b60405180608001604052806000815260200160608152602001600015158152602001606081525090565b508054610b1a906110f8565b6000825580601f10610b2c5750610b4b565b601f016020900490600052602060002090810190610b4a9190610b4e565b5b50565b5b80821115610b67576000816000905550600101610b4f565b5090565b600081519050919050565b600082825260208201905092915050565b6000819050602082019050919050565b6000819050919050565b610baa81610b97565b82525050565b600081519050919050565b600082825260208201905092915050565b60005b83811015610bea578082015181840152602081019050610bcf565b60008484015250505050565b6000601f19601f8301169050919050565b6000610c1282610bb0565b610c1c8185610bbb565b9350610c2c818560208601610bcc565b610c3581610bf6565b840191505092915050565b60008115159050919050565b610c5581610c40565b82525050565b6000608083016000830151610c736000860182610ba1565b5060208301518482036020860152610c8b8282610c07565b9150506040830151610ca06040860182610c4c565b5060608301518482036060860152610cb88282610c07565b9150508091505092915050565b6000610cd18383610c5b565b905092915050565b6000602082019050919050565b6000610cf182610b6b565b610cfb8185610b76565b935083602082028501610d0d85610b87565b8060005b85811015610d495784840389528151610d2a8582610cc5565b9450610d3583610cd9565b925060208a01995050600181019050610d11565b50829750879550505050505092915050565b60006020820190508181036000830152610d758184610ce6565b905092915050565b6000604051905090565b600080fd5b600080fd5b610d9a81610b97565b8114610da557600080fd5b50565b600081359050610db781610d91565b92915050565b600060208284031215610dd357610dd2610d87565b5b6000610de184828501610da8565b91505092915050565b600080fd5b600080fd5b7f4e487b7100000000000000000000000000000000000000000000000000000000600052604160045260246000fd5b610e2c82610bf6565b810181811067ffffffffffffffff82111715610e4b57610e4a610df4565b5b80604052505050565b6000610e5e610d7d565b9050610e6a8282610e23565b919050565b600067ffffffffffffffff821115610e8a57610e89610df4565b5b610e9382610bf6565b9050602081019050919050565b82818337600083830152505050565b6000610ec2610ebd84610e6f565b610e54565b905082815260208101848484011115610ede57610edd610def565b5b610ee9848285610ea0565b509392505050565b600082601f830112610f0657610f05610dea565b5b8135610f16848260208601610eaf565b91505092915050565b60008060408385031215610f3657610f35610d87565b5b600083013567ffffffffffffffff811115610f5457610f53610d8c565b5b610f6085828601610ef1565b925050602083013567ffffffffffffffff811115610f8157610f80610d8c565b5b610f8d85828601610ef1565b9150509250929050565b60008060408385031215610fae57610fad610d87565b5b6000610fbc85828601610da8565b925050602083013567ffffffffffffffff811115610fdd57610fdc610d8c565b5b610fe985828601610ef1565b9150509250929050565b610ffc81610b97565b82525050565b60006020820190506110176000830184610ff3565b92915050565b600082825260208201905092915050565b600061103982610bb0565b611043818561101d565b9350611053818560208601610bcc565b61105c81610bf6565b840191505092915050565b61107081610c40565b82525050565b600060808201905061108b6000830187610ff3565b818103602083015261109d818661102e565b90506110ac6040830185611067565b81810360608301526110be818461102e565b905095945050505050565b7f4e487b7100000000000000000000000000000000000000000000000000000000600052602260045260246000fd5b6000600282049050600182168061111057607f821691505b602082108103611123576111226110c9565b5b50919050565b7f4e487b7100000000000000000000000000000000000000000000000000000000600052603260045260246000fd5b7f4e487b7100000000000000000000000000000000000000000000000000000000600052601160045260246000fd5b600061119282610b97565b91507fffffffffffffffffffffffffffffffffffffffffffffffffffffffffffffffff82036111c4576111c3611158565b5b600182019050919050565b60008190508160005260206000209050919050565b60006020601f8301049050919050565b600082821b905092915050565b6000600883026112317fffffffffffffffffffffffffffffffffffffffffffffffffffffffffffffffff826111f4565b61123b86836111f4565b95508019841693508086168417925050509392505050565b6000819050919050565b600061127861127361126e84610b97565b611253565b610b97565b9050919050565b6000819050919050565b6112928361125d565b6112a661129e8261127f565b848454611201565b825550505050565b600090565b6112bb6112ae565b6112c6818484611289565b505050565b5b818110156112ea576112df6000826112b3565b6001810190506112cc565b5050565b601f82111561132f57611300816111cf565b611309846111e4565b81016020851015611318578190505b61132c611324856111e4565b8301826112cb565b50505b505050565b600082821c905092915050565b600061135260001984600802611334565b1980831691505092915050565b600061136b8383611341565b9150826002028217905092915050565b61138482610bb0565b67ffffffffffffffff81111561139d5761139c610df4565b5b6113a782546110f8565b6113b28282856112ee565b600060209050601f8311600181146113e557600084156113d3578287015190505b6113dd858261135f565b865550611445565b601f1984166113f3866111cf565b60005b8281101561141b578489015182556001820191506020850194506020810190506113f6565b868310156114385784890151611434601f891682611341565b8355505b6001600288020188555050505b505050505050565b600081905092915050565b600061146382610bb0565b61146d818561144d565b935061147d818560208601610bcc565b80840191505092915050565b60006114958284611458565b915081905092915050565b600060408201905081810360008301526114ba818561102e565b90506114c96020830184611067565b9392505050565b60006114db82610b97565b91506114e683610b97565b92508282039050818111156114fe576114fd611158565b5b92915050565b6000602082019050818103600083015261151e818461102e565b905092915050565b60006040820190508181036000830152611540818561102e565b905061154f6020830184610ff3565b939250505056fea2646970667358221220335c80be95ff1aad06395e2e7f36a7c4e9766d99afefa86308fae0918dc087d264736f6c63430008110033",
  "immutableReferences": {},
  "source": "// SPDX-License-Identifier: GPL-3.0\npragma solidity ^0.8.6;\n\ncontract TodoContract {\n    uint256 public taskCount = 0;\n\n    struct Task {\n        uint256 index;\n        string taskName;\n        bool isComplete;\n        string createdAt;\n    }\n\n    mapping(uint256 => Task) public todos;\n    event TaskCreadted(string task, uint256 indexed taskId);\n    event TaskUpdated(string task, uint256 taskId);\n    event TaskIsCompleteToggled(\n        string task,\n        uint256 indexed taskId,\n        bool isComplete,\n        string indexed createdAt\n    );\n    event TaskDeleted(uint256 taskId);\n\n    function getTasks() external view returns (Task[] memory values) {\n        Task[] memory tasks = new Task[](taskCount);\n\n        for (uint256 i = 0; i < taskCount; i++) {\n            tasks[i] = todos[i];\n        }\n\n        return tasks;\n    }\n\n    function createTask(string memory _taskName, string memory _createdAt)\n        external\n    {\n        todos[taskCount] = Task(taskCount, _taskName, false, _createdAt);\n        taskCount++;\n        emit TaskCreadted(_taskName, taskCount - 1);\n    }\n\n    function updateTask(uint256 _taskId, string memory _taskName) external {\n        Task memory currTask = todos[_taskId];\n        todos[_taskId] = Task(\n            _taskId,\n            _taskName,\n            currTask.isComplete,\n            currTask.createdAt\n        );\n        emit TaskUpdated(_taskName, _taskId);\n    }\n\n    function deleteTask(uint256 _taskId) external {\n        delete todos[_taskId];\n        emit TaskDeleted(_taskId);\n    }\n\n    function toggleComplete(uint256 _taskId) external {\n        Task memory currTask = todos[_taskId];\n        todos[_taskId] = Task(\n            _taskId,\n            currTask.taskName,\n            !currTask.isComplete,\n            currTask.createdAt\n        );\n\n        emit TaskIsCompleteToggled(\n            currTask.taskName,\n            _taskId,\n            !currTask.isComplete,\n            currTask.createdAt\n        );\n    }\n}\n",
  "sourcePath": "/home/gabe/development/web3/dolist-dapp/contracts/TodoContract.sol",
  "compiler": {
    "name": "solc",
    "version": "0.8.17+commit.8df45f5f.Emscripten.clang"
  },
  "schemaVersion": "3.4.11",
  "updatedAt": "2023-01-24T20:06:10.614Z",
  "networkType": "ethereum",
  "devdoc": {
    "kind": "dev",
    "methods": {},
    "version": 1
  },
  "userdoc": {
    "kind": "user",
    "methods": {},
    "version": 1
  }
}