{
  "contractName": "TodoContract",
  "abi": [
    {
      "anonymous": false,
      "inputs": [
        {
          "indexed": false,
          "internalType": "string",
          "name": "task",
          "type": "string"
        },
        {
          "indexed": true,
          "internalType": "uint256",
          "name": "taskId",
          "type": "uint256"
        }
      ],
      "name": "TaskCreadted",
      "type": "event"
    },
    {
      "anonymous": false,
      "inputs": [
        {
          "indexed": false,
          "internalType": "uint256",
          "name": "taskId",
          "type": "uint256"
        }
      ],
      "name": "TaskDeleted",
      "type": "event"
    },
    {
      "anonymous": false,
      "inputs": [
        {
          "indexed": false,
          "internalType": "string",
          "name": "task",
          "type": "string"
        },
        {
          "indexed": true,
          "internalType": "uint256",
          "name": "taskId",
          "type": "uint256"
        },
        {
          "indexed": false,
          "internalType": "bool",
          "name": "isComplete",
          "type": "bool"
        },
        {
          "indexed": true,
          "internalType": "string",
          "name": "createdAt",
          "type": "string"
        }
      ],
      "name": "TaskIsCompleteToggled",
      "type": "event"
    },
    {
      "anonymous": false,
      "inputs": [
        {
          "indexed": false,
          "internalType": "string",
          "name": "task",
          "type": "string"
        },
        {
          "indexed": false,
          "internalType": "uint256",
          "name": "taskId",
          "type": "uint256"
        }
      ],
      "name": "TaskUpdated",
      "type": "event"
    },
    {
      "inputs": [],
      "name": "taskCount",
      "outputs": [
        {
          "internalType": "uint256",
          "name": "",
          "type": "uint256"
        }
      ],
      "stateMutability": "view",
      "type": "function",
      "constant": true
    },
    {
      "inputs": [
        {
          "internalType": "uint256",
          "name": "",
          "type": "uint256"
        }
      ],
      "name": "todos",
      "outputs": [
        {
          "internalType": "uint256",
          "name": "index",
          "type": "uint256"
        },
        {
          "internalType": "string",
          "name": "taskName",
          "type": "string"
        },
        {
          "internalType": "bool",
          "name": "isComplete",
          "type": "bool"
        },
        {
          "internalType": "string",
          "name": "createdAt",
          "type": "string"
        }
      ],
      "stateMutability": "view",
      "type": "function",
      "constant": true
    },
    {
      "inputs": [
        {
          "internalType": "string",
          "name": "_taskName",
          "type": "string"
        },
        {
          "internalType": "string",
          "name": "_createdAt",
          "type": "string"
        }
      ],
      "name": "createTask",
      "outputs": [],
      "stateMutability": "nonpayable",
      "type": "function"
    },
    {
      "inputs": [
        {
          "internalType": "uint256",
          "name": "_taskId",
          "type": "uint256"
        },
        {
          "internalType": "string",
          "name": "_taskName",
          "type": "string"
        }
      ],
      "name": "updateTask",
      "outputs": [],
      "stateMutability": "nonpayable",
      "type": "function"
    },
    {
      "inputs": [
        {
          "internalType": "uint256",
          "name": "_taskId",
          "type": "uint256"
        }
      ],
      "name": "deleteTask",
      "outputs": [],
      "stateMutability": "nonpayable",
      "type": "function"
    },
    {
      "inputs": [
        {
          "internalType": "uint256",
          "name": "_taskId",
          "type": "uint256"
        }
      ],
      "name": "toggleComplete",
      "outputs": [],
      "stateMutability": "nonpayable",
      "type": "function"
    }
  ],
  "bytecode": "0x60806040526000805534801561001457600080fd5b5061113c806100246000396000f3fe608060405234801561001057600080fd5b50600436106100625760003560e01c80630951e5bd14610067578063292a458514610083578063560f31921461009f57806386533f6c146100bb578063b6cb58a5146100d7578063bc8bc2b4146100f5575b600080fd5b610081600480360381019061007c919061094a565b610128565b005b61009d60048036038101906100989190610abd565b610390565b005b6100b960048036038101906100b4919061094a565b610484565b005b6100d560048036038101906100d09190610b35565b610510565b005b6100df610750565b6040516100ec9190610ba0565b60405180910390f35b61010f600480360381019061010a919061094a565b610756565b60405161011f9493929190610c55565b60405180910390f35b6000600160008381526020019081526020016000206040518060800160405290816000820154815260200160018201805461016290610cd7565b80601f016020809104026020016040519081016040528092919081815260200182805461018e90610cd7565b80156101db5780601f106101b0576101008083540402835291602001916101db565b820191906000526020600020905b8154815290600101906020018083116101be57829003601f168201915b505050505081526020016002820160009054906101000a900460ff1615151515815260200160038201805461020f90610cd7565b80601f016020809104026020016040519081016040528092919081815260200182805461023b90610cd7565b80156102885780601f1061025d57610100808354040283529160200191610288565b820191906000526020600020905b81548152906001019060200180831161026b57829003601f168201915b5050505050815250509050604051806080016040528083815260200182602001518152602001826040015115151581526020018260600151815250600160008481526020019081526020016000206000820151816000015560208201518160010190816102f59190610eb4565b5060408201518160020160006101000a81548160ff021916908315150217905550606082015181600301908161032b9190610eb4565b5090505080606001516040516103419190610fc2565b6040518091039020827f6fa54a15f6791449f25611f89d562e158897bd720f134e04a2f3e978868ab4288360200151846040015115604051610384929190610fd9565b60405180910390a35050565b604051806080016040528060005481526020018381526020016000151581526020018281525060016000805481526020019081526020016000206000820151816000015560208201518160010190816103e99190610eb4565b5060408201518160020160006101000a81548160ff021916908315150217905550606082015181600301908161041f9190610eb4565b5090505060008081548092919061043590611038565b919050555060016000546104499190611080565b7fa78c45cd0401f3c84b7725cc5d493038b16433c6c78212fa5a5e3677e0e2f4ae8360405161047891906110b4565b60405180910390a25050565b600160008281526020019081526020016000206000808201600090556001820160006104b091906108a3565b6002820160006101000a81549060ff02191690556003820160006104d491906108a3565b50507fd078b251d950cc55c44340be1db732337ef4939a76e1367ee271ad2cb19c46af816040516105059190610ba0565b60405180910390a150565b6000600160008481526020019081526020016000206040518060800160405290816000820154815260200160018201805461054a90610cd7565b80601f016020809104026020016040519081016040528092919081815260200182805461057690610cd7565b80156105c35780601f10610598576101008083540402835291602001916105c3565b820191906000526020600020905b8154815290600101906020018083116105a657829003601f168201915b505050505081526020016002820160009054906101000a900460ff161515151581526020016003820180546105f790610cd7565b80601f016020809104026020016040519081016040528092919081815260200182805461062390610cd7565b80156106705780601f1061064557610100808354040283529160200191610670565b820191906000526020600020905b81548152906001019060200180831161065357829003601f168201915b505050505081525050905060405180608001604052808481526020018381526020018260400151151581526020018260600151815250600160008581526020019081526020016000206000820151816000015560208201518160010190816106d89190610eb4565b5060408201518160020160006101000a81548160ff021916908315150217905550606082015181600301908161070e9190610eb4565b509050507fa19b2211615873e8fbe860460ba43e467bf8f2d28d98b023144fc0739af842cd82846040516107439291906110d6565b60405180910390a1505050565b60005481565b600160205280600052604060002060009150905080600001549080600101805461077f90610cd7565b80601f01602080910402602001604051908101604052809291908181526020018280546107ab90610cd7565b80156107f85780601f106107cd576101008083540402835291602001916107f8565b820191906000526020600020905b8154815290600101906020018083116107db57829003601f168201915b5050505050908060020160009054906101000a900460ff169080600301805461082090610cd7565b80601f016020809104026020016040519081016040528092919081815260200182805461084c90610cd7565b80156108995780601f1061086e57610100808354040283529160200191610899565b820191906000526020600020905b81548152906001019060200180831161087c57829003601f168201915b5050505050905084565b5080546108af90610cd7565b6000825580601f106108c157506108e0565b601f0160209004906000526020600020908101906108df91906108e3565b5b50565b5b808211156108fc5760008160009055506001016108e4565b5090565b6000604051905090565b600080fd5b600080fd5b6000819050919050565b61092781610914565b811461093257600080fd5b50565b6000813590506109448161091e565b92915050565b6000602082840312156109605761095f61090a565b5b600061096e84828501610935565b91505092915050565b600080fd5b600080fd5b6000601f19601f8301169050919050565b7f4e487b7100000000000000000000000000000000000000000000000000000000600052604160045260246000fd5b6109ca82610981565b810181811067ffffffffffffffff821117156109e9576109e8610992565b5b80604052505050565b60006109fc610900565b9050610a0882826109c1565b919050565b600067ffffffffffffffff821115610a2857610a27610992565b5b610a3182610981565b9050602081019050919050565b82818337600083830152505050565b6000610a60610a5b84610a0d565b6109f2565b905082815260208101848484011115610a7c57610a7b61097c565b5b610a87848285610a3e565b509392505050565b600082601f830112610aa457610aa3610977565b5b8135610ab4848260208601610a4d565b91505092915050565b60008060408385031215610ad457610ad361090a565b5b600083013567ffffffffffffffff811115610af257610af161090f565b5b610afe85828601610a8f565b925050602083013567ffffffffffffffff811115610b1f57610b1e61090f565b5b610b2b85828601610a8f565b9150509250929050565b60008060408385031215610b4c57610b4b61090a565b5b6000610b5a85828601610935565b925050602083013567ffffffffffffffff811115610b7b57610b7a61090f565b5b610b8785828601610a8f565b9150509250929050565b610b9a81610914565b82525050565b6000602082019050610bb56000830184610b91565b92915050565b600081519050919050565b600082825260208201905092915050565b60005b83811015610bf5578082015181840152602081019050610bda565b60008484015250505050565b6000610c0c82610bbb565b610c168185610bc6565b9350610c26818560208601610bd7565b610c2f81610981565b840191505092915050565b60008115159050919050565b610c4f81610c3a565b82525050565b6000608082019050610c6a6000830187610b91565b8181036020830152610c7c8186610c01565b9050610c8b6040830185610c46565b8181036060830152610c9d8184610c01565b905095945050505050565b7f4e487b7100000000000000000000000000000000000000000000000000000000600052602260045260246000fd5b60006002820490506001821680610cef57607f821691505b602082108103610d0257610d01610ca8565b5b50919050565b60008190508160005260206000209050919050565b60006020601f8301049050919050565b600082821b905092915050565b600060088302610d6a7fffffffffffffffffffffffffffffffffffffffffffffffffffffffffffffffff82610d2d565b610d748683610d2d565b95508019841693508086168417925050509392505050565b6000819050919050565b6000610db1610dac610da784610914565b610d8c565b610914565b9050919050565b6000819050919050565b610dcb83610d96565b610ddf610dd782610db8565b848454610d3a565b825550505050565b600090565b610df4610de7565b610dff818484610dc2565b505050565b5b81811015610e2357610e18600082610dec565b600181019050610e05565b5050565b601f821115610e6857610e3981610d08565b610e4284610d1d565b81016020851015610e51578190505b610e65610e5d85610d1d565b830182610e04565b50505b505050565b600082821c905092915050565b6000610e8b60001984600802610e6d565b1980831691505092915050565b6000610ea48383610e7a565b9150826002028217905092915050565b610ebd82610bbb565b67ffffffffffffffff811115610ed657610ed5610992565b5b610ee08254610cd7565b610eeb828285610e27565b600060209050601f831160018114610f1e5760008415610f0c578287015190505b610f168582610e98565b865550610f7e565b601f198416610f2c86610d08565b60005b82811015610f5457848901518255600182019150602085019450602081019050610f2f565b86831015610f715784890151610f6d601f891682610e7a565b8355505b6001600288020188555050505b505050505050565b600081905092915050565b6000610f9c82610bbb565b610fa68185610f86565b9350610fb6818560208601610bd7565b80840191505092915050565b6000610fce8284610f91565b915081905092915050565b60006040820190508181036000830152610ff38185610c01565b90506110026020830184610c46565b9392505050565b7f4e487b7100000000000000000000000000000000000000000000000000000000600052601160045260246000fd5b600061104382610914565b91507fffffffffffffffffffffffffffffffffffffffffffffffffffffffffffffffff820361107557611074611009565b5b600182019050919050565b600061108b82610914565b915061109683610914565b92508282039050818111156110ae576110ad611009565b5b92915050565b600060208201905081810360008301526110ce8184610c01565b905092915050565b600060408201905081810360008301526110f08185610c01565b90506110ff6020830184610b91565b939250505056fea2646970667358221220ab5436db63d769d94ce02cab454b25e58de176f8a075bbc7f5ab4f6ec11fac8864736f6c63430008110033",
  "immutableReferences": {},
  "source": "// SPDX-License-Identifier: GPL-3.0\npragma solidity ^0.8.6;\n\ncontract TodoContract {\n  uint public taskCount = 0;\n\n  struct Task {\n    uint index;\n    string taskName;\n    bool isComplete;\n    string createdAt;\n  }\n\n  mapping(uint => Task) public todos;\n  event TaskCreadted(string task, uint indexed taskId);\n  event TaskUpdated(string task, uint taskId);\n  event TaskIsCompleteToggled(string task, uint indexed taskId, bool isComplete, string indexed createdAt);\n  event TaskDeleted(uint taskId);\n\n  function createTask (string memory _taskName, string memory _createdAt) external {\n    todos[taskCount] = Task(taskCount, _taskName, false, _createdAt);\n    taskCount++;\n    emit TaskCreadted(_taskName, taskCount - 1);\n  }\n\n  function updateTask(uint _taskId, string memory _taskName) external {\n    Task memory currTask = todos[_taskId];\n    todos[_taskId] = Task(_taskId, _taskName, currTask.isComplete, currTask.createdAt);\n    emit TaskUpdated(_taskName, _taskId);\n  }\n\n  function deleteTask(uint _taskId) external {\n    delete todos[_taskId];\n    emit TaskDeleted(_taskId);\n  }\n\n  function toggleComplete (uint _taskId) external {\n    Task memory currTask = todos[_taskId];\n    todos[_taskId] = Task(_taskId, currTask.taskName, !currTask.isComplete, currTask.createdAt);\n\n    emit TaskIsCompleteToggled(currTask.taskName, _taskId, !currTask.isComplete, currTask.createdAt);\n  }\n}\n",
  "sourcePath": "/home/gabe/development/web3/dolist-dapp/contracts/TodoContract.sol",
  "compiler": {
    "name": "solc",
    "version": "0.8.17+commit.8df45f5f.Emscripten.clang"
  },
  "schemaVersion": "3.4.11",
  "updatedAt": "2023-01-24T18:32:17.370Z",
  "networkType": "ethereum",
  "devdoc": {
    "kind": "dev",
    "methods": {},
    "version": 1
  },
  "userdoc": {
    "kind": "user",
    "methods": {},
    "version": 1
  }
}